:020000040800F2
:10000000E805002045010008D9110008CF100008BC
:10001000D5110008790B000817180008000000002F
:100020000000000000000000000000009D13000818
:100030003D0F0008000000004D120008B114000838
:100040005F0100085F0100085F0100085F01000810
:100050005F0100085F0100085F0100085F01000800
:100060005F0100085F0100085F0100085F010008F0
:100070005F0100085F0100085F0100085F010008E0
:100080005F0100085F0100085F0100085F010008D0
:100090005F0100085F0100085F0100085F010008C0
:1000A0005F0100085F0100085F0100085F010008B0
:1000B0005F0100085F0100085F0100085F010008A0
:1000C0005F0100085F0100085F0100085F01000890
:1000D0005F010008151500085F0100089D15000864
:1000E0005F0100085F0100085F0100085F01000870
:1000F0005F0100085F0100085F0100085F01000860
:100100005F0100085F0100085F0100085F0100084F
:100110005F0100085F0100085F0100085F0100083F
:100120005F0100085F0100085F0100085F0100082F
:10013000DFF80CD000F044FB004800471925000808
:10014000E80500200648804706480047FEE7FEE72E
:10015000FEE7FEE7FEE7FEE7FEE7FEE7FEE7FEE777
:10016000B514000831010008421C10F8011B0029D9
:10017000FBD1801A7047F0B480EA0102D40F42002C
:10018000B2EB410F02D20246084611464A0042D065
:10019000C30DDDB2C1F3C752AD1A202D35DAC1F35C
:1001A000160141F4000204B15242C5F1200602FAE0
:1001B00006F12A411044B3EBD05F23D0C4B1012D26
:1001C000A0EBC35009DCF0BC4FF0004202EAC3527E
:1001D000DBB200F5000000F00DB9400000F18070C6
:1001E00000EBC350A0F1807040EAD170490009E0F3
:1001F000490841EAC071A0EBC35000F50000400877
:1002000000EBC350F0BC00F0ECB86142012202EBFD
:100210004101001BF6E7F0BC704781F00041AAE7FE
:1002200080F00040A7E780EA010210B502F0004329
:10023000400022D04A001FD0010E01EB1261C0F332
:100240005600C2F3560240F4000042F40002A0FB44
:10025000022000047F39140400D0401C50EA1240F0
:1002600001D44000491EC2B20C0604EBD010401C61
:100270004008802A02D003E0002010BD20F00100D9
:10028000002900DA0020184310BD30B480EA0102D2
:1002900002F0004530F0004221F0004013D090B150
:1002A000C30DD40DC2F31601C0F31600E41A41F4D5
:1002B000000140F400027D34914201D3641C00E04F
:1002C0004900002C02DA30BC002070474FF40000D7
:1002D0000023914201D3891A034340084FEA4101A8
:1002E000F7D151B1914202D14FF0004105E002D265
:1002F0004FF0010101E06FF0010103EBC45028440D
:1003000030BC00F06EB8C10F80EAE0700844CA0744
:100310009623002100F06EB896230022114600F0CB
:1003200069B800F0004220F00040C10DC0F3160093
:1003300040F400007F2901DA00207047962903DC91
:10034000C1F19601C84001E096398840002AF4D0F6
:100350004042704730B50B46014600202022012460
:1003600009E021FA02F59D4205D303FA02F5491B83
:1003700004FA02F52844151EA2F10102F1DC30BD99
:100380002DE9F05F0546002092469B4688460646CA
:10039000814640241BE0284641464746224600F05D
:1003A00030FA53465A46C01A914110D311461846A6
:1003B000224600F017FA2D1A67EB01084F46224635
:1003C0000120002100F00EFA17EB00094E41201E1B
:1003D000A4F10104DFDC484631462A464346BDE825
:1003E000F09F0029A8BF7047401C490008BF20F0BB
:1003F0000100704710B4B0FA80FC00FA0CF050EA2B
:10040000010404BF10BC704749B1CCF1200421FAAB
:1004100004F411FA0CF118BF012121430843A3EBA6
:100420000C01CB1D4FEA00614FEA102042BF0020B3
:1004300010BC704700EBC35010440029A4BF10BC8F
:100440007047401C490008BF20F0010010BC7047F5
:100450002DE9FE4F804681EA0300C00F0C46009054
:1004600021F0004123F00045B8EB0200A94105D27C
:100470004046214690461C460B46024623F000406B
:10048000104347D0270DC7F30A00C3F30A51029067
:10049000401A019040286BDAC3F3130040F4801B2C
:1004A0000098924620B10023D2EB030A63EB0B0BBA
:1004B00001985946C0F14002504600F093F90646B3
:1004C0000D4650465946019A00F0ABF910EB080072
:1004D0006141002487EA115284EAE7731A4340D04D
:1004E000009A62B3019A012A4FEA075215DC001BF9
:1004F00061EB02014FF0004202EA0752CDE90042EF
:10050000001C41F5801132462B4600F0ABF903B0D8
:10051000BDE8F08F40462146F9E7001B61EB020180
:10052000001C41F5801300185B412018A2F500174C
:1005300047EB030140EAD570B6196D4111E06D0833
:100540004FEA360645EAC0754FEA0752001B61EBD9
:100550000201001C41F5801149084FEA30000019E2
:10056000514132462B4603B0BDE8F04F00F06BB965
:100570000098012240000023D0EB020263EBE073FD
:10058000009821464FEAE074B8EB000061EB0401EB
:10059000E9E783F000435BE781F0004158E72DE98C
:1005A000FE4F81EA030404F0004421F0004100946E
:1005B0004FF0000B23F0004350EA01045ED052EAF2
:1005C00003045BD0C3F30A54C1F30A552C44A4F2CC
:1005D000F3340194A0FB0254C1F3130141F48011E0
:1005E000C3F3130343F4801301FB024400FB034EE7
:1005F000840A970A44EA815447EA8357A4FB0768B0
:1006000002958D0A05FB07854FEA932C04FB0C54D9
:100610002705029D4FEA065847EA1637B5EB08054D
:100620006EEB070C870E920E47EA811742EA83129F
:10063000A7FB0201B6EB0B0164EB00042B0D43EAB0
:100640000C335E1844EB1C50DA465146E7FB0201BE
:10065000C5F313044FEA0B3343EA14534FEA043251
:10066000019C43EA0603A4F10C040294009CCDE92A
:1006700000B400F0F7F803B0BDE8F08F00200146A9
:10068000F9E72DE9F04D81EA030404F0004B21F075
:10069000004514464FF0000A23F0004150EA0502DD
:1006A00020D054EA01021DD0C5F30A570246C5F313
:1006B0001303C1F31300C1F30A5640F4801543F449
:1006C0008013A7EB0608101BD64608F2FD3873EB23
:1006D000050002D308F1010801E092185B41B8F16E
:1006E000000F03DA00200146BDE8F08D00204FF432
:1006F0008011064684460EE0171B73EB050705D3F1
:10070000121B63EB050306434CEA010C49084FEA50
:10071000300092185B4150EA0107EDD152EA030024
:1007200012D082EA040083EA0501084305D0101BB9
:10073000AB4106D20122002306E000224FF0004325
:1007400002E06FF0010253101AEB06004CEB085167
:1007500010EB0A0041EB0B01BDE8F04D00F073B85F
:10076000C1F30A52C1F3130140F2FF3341F4801187
:100770009A4202DA00200146704740F233439A421F
:10078000A2F2334202DC524200F03BB800F02AB839
:1007900030B5041E71F1000404DB4FF00044404208
:1007A00064EB0101141E73F1000405DB1C464FF0DD
:1007B0000043524263EB0403994208BF904230BDAC
:1007C000064C074D06E0E06840F0010394E807009E
:1007D00098471034AC42F6D3FFF7AEFCD0270008A0
:1007E000F0270008202A04DB203A00FA02F100205A
:1007F00070479140C2F1200320FA03F3194390405F
:100800007047202A04DB203A21FA02F000217047C9
:1008100021FA02F3D040C2F1200291400843194668
:100820007047202A06DBCB17203A41FA02F043EA50
:10083000E07306E041FA02F3D040C2F12002914099
:1008400008431946704710B5141E73F1000408DA06
:10085000401C41F1000192185B411A4301D120F084
:10086000010010BD2DE9F04D92469B4611B1B1FA41
:1008700081F202E0B0FA80F220329046FFF7B2FF38
:1008800004460F4640EA0A0041EA0B0153465A4625
:10089000084313D0114653EA010019D0C8F14002B1
:1008A0005046FFF7AEFF05460E46504659464246B3
:1008B000FFF798FF084305D0012004E020463946A1
:1008C000BDE8F08D0020054346EAE0762C4337432F
:1008D0000A986305E40AA0EB08000022FD0A44EA36
:1008E00047540A3002D500200146E9E701051019F6
:1008F0006941DDE9084500196941BDE8F04DA2E70D
:1009000021B1826842F00102826003E0826822F035
:10091000010282607047000010B50446124884420C
:1009200008D10121401500F0BFFC0021601500F046
:10093000BBFC17E00D48844208D10121001500F0EE
:10094000B3FC0021201500F0AFFC0BE00848844206
:1009500008D10121C80300F0A7FC00214FF400409A
:1009600000F0A2FC10BD000000240140002801405E
:10097000003C0140014600208A6802F004020AB1EE
:10098000012000E0002070470146C86C80B270472B
:100990000246002013680B400BB1012000E000204C
:1009A0007047014600208A6802F008020AB101205F
:1009B00000E000207047000030B502460020002310
:1009C00050680F4C20400D790C6844EA0524204300
:1009D000506090680B4C2040D1E902542C434D7973
:1009E00044EA450420439060D06A20F470000C7CF7
:1009F000641EE4B2234340EA0350D06230BD0000DD
:100A0000FFFEF0FFFDF7F1FFF0B504460D460020B4
:100A10000021092D11DDE068A5F10A0606EB460765
:100A2000072606FA07F18843A5F10A0606EB4606F3
:100A300003FA06F10843E0600CE0206905EB450786
:100A4000072606FA07F1884305EB450603FA06F187
:100A500008432061072A0FDA606B561E06EB8607F3
:100A60001F2606FA07F18843561E06EB860605FA8E
:100A700006F10843606322E00D2A0FDA206BD61FCF
:100A800006EB86071F2606FA07F18843D61F06EBFA
:100A9000860605FA06F10843206310E0E06AA2F139
:100AA0000D0606EB86071F2606FA07F18843A2F11A
:100AB0000D0606EB860605FA06F10843E062F0BD76
:100AC000816841F008018160704721B1826842F479
:100AD000A002826003E0826822F4A0028260704774
:100AE000816841F0040181607047000000B587B063
:100AF00001214FF4017000F0C7FB4FF4004000F0FB
:100B0000A7FB1F20ADF8040000208DF8070001A905
:100B1000174800F014FA1748FFF7FEFE0020029075
:100B20008DF80C008DF80D004FF46020049000202B
:100B3000059001208DF8180002A90E48FFF73CFF30
:100B400001210C48FFF7DCFE0A48FFF7B9FF00BFA0
:100B50000848FFF726FF0028FAD10648FFF7C0FF34
:100B600000BF0448FFF706FF0028FAD107B000BD18
:100B7000000801400024014000BFFEE710B50A2133
:100B8000002000F08DFA1A4908800846018819A053
:100B900000F044FE0A21012000F082FA1449488046
:100BA0000846418817A000F039FE0A21022000F013
:100BB00077FA0F4988800846818816A000F02EFE3B
:100BC0000A21032000F06CFA0949C8800846C18850
:100BD00014A000F023FE0A21042000F061FA044969
:100BE00008810846018913A000F018FE10BD00001E
:100BF0004C0000200D0A20434830203D2025642071
:100C00000D0A00000D0A20434831203D20256420B4
:100C10000D0A00000D0A20434832203D20256420A3
:100C20000D0A00000D0A20434833203D2025642092
:100C30000D0A00000D0A20434834203D2025642081
:100C40000D0A00002DE9F05F0A21002000F028FACB
:100C50008B490880084601888AA000F0DFFD8D4995
:100C600009888D4A1288881AFFF74DFB804684490F
:100C70000888FFF751FB814686480088FFF74CFB48
:100C800082464946FFF7C9FA07464146FFF7FDFA93
:100C900006468249FFF7C7FA0546FFF742FB00F117
:100CA0001E0421467EA000F0BDFC0A21012000F0B8
:100CB000F7F973494880084641887BA000F0AEFDF3
:100CC0007D4909887D4A1288881AFFF71CFB8046F7
:100CD0006B494888FFF720FB814677480088FFF77B
:100CE0001BFB82464946FFF798FA07464146FFF745
:100CF000CCFA06467249FFF796FA0546FFF711FB54
:100D000000F1140421466FA000F08CFC0A2102209F
:100D100000F0C6F95A498880084681886BA000F027
:100D20007DFD6E4909886E4A1288881AFFF7EBFA32
:100D3000804653498888FFF7EFFA81466748008864
:100D4000FFF7EAFA82464946FFF767FA0746414647
:100D5000FFF79BFA06466349FFF765FA0546FFF77A
:100D6000E0FA0446214660A000F05CFC0A21032062
:100D700000F096F94249C8800846C1885CA000F09E
:100D80004DFD5F4909885F4A1288881AFFF7BBFA50
:100D900080463B49C888FFF7BFFA8146584800881B
:100DA000FFF7BAFA82464946FFF737FA0746414647
:100DB000FFF76BFA06465449FFF735FA0546FFF789
:100DC000B0FA00F11404214650A000F02BFC0A21D7
:100DD000042000F065F92A490881084601894DA0E0
:100DE00000F01CFD4F4909884F4A1288881AFFF706
:100DF0008AFA814622490889FFF78EFA82464948D5
:100E00000088FFF789FA83465146FFF706FA8046C5
:100E10004946FFF73AFA07464449FFF704FA0646FF
:100E20004349FFF7A8F90546FFF77BFA0446214638
:100E300040A000F0F7FB3B4909883B4A1288881A1A
:100E4000FFF761FA80460E490989374A1288881AE5
:100E5000FFF759FA81464146FFF717FA074633492B
:100E6000FFF7E1F906463249FFF785F90546FFF736
:100E700058FA044621462FA000F0D0FCBDE8F09FB0
:100E80004C0000200D0A20434830203D20256420DE
:100E90000D0A00003C0000203E0000200000AE4291
:100EA000342C2533640000000D0A20434831203DD6
:100EB000202564200D0A0000380000203A000020A0
:100EC0000000C242332C2533640000000D0A204389
:100ED0004832203D202564200D0A00003400002007
:100EE000360000200000FA42322C25336400000056
:100EF0000D0A20434833203D202564200D0A0000C0
:100F000030000020320000200000D242312C253376
:100F1000640000000D0A20434834203D2025642051
:100F20000D0A00002C0000202E0000200000DC42F2
:100F300000002041302C25336400000070472DE96B
:100F4000F04102460025002600200023002400274F
:100F500091F803C00CF00F0591F803C00CF0100CD1
:100F6000BCF1000F03D091F802C04CEA050591F8DE
:100F700000C0BCF1000F31D0146800202BE04FF00E
:100F8000010C0CFA00F3B1F800C00CEA03069E4213
:100F900020D183004FF00F0C0CFA03F7BC4305FA85
:100FA00003FC4CEA040491F803C0BCF1280F06D1FD
:100FB0004FF0010C0CFA00FCC2F814C00AE091F8E2
:100FC00003C0BCF1480F05D14FF0010C0CFA00FC36
:100FD000C2F810C0401C0828D1D31460B1F800C07A
:100FE000BCF1FF0F34DD546800202EE000F1080C46
:100FF0004FF0010808FA0CF3B1F800C00CEA030640
:101000009E4221D183004FF00F0C0CFA03F7BC4332
:1010100005FA03FC4CEA040491F803C0BCF1280F64
:1010200005D100F1080C08FA0CF8C2F8148091F808
:1010300003C0BCF1480F07D100F1080C4FF00108C4
:1010400008FA0CF8C2F81080401C0828CED354606F
:10105000BDE8F0810246002093680B400BB10120EF
:1010600000E00020704701617047000010B50446A1
:101070000723012221460948FFF7C6FC0121074842
:10108000FFF723FD00BF02210448FFF781FC002881
:10109000F9D00248FFF778FC10BD000000240140A1
:1010A0002DE9F04107460C460025002608E03846A9
:1010B000FFF7DCFF0544052001F0FAF9701CC6B209
:1010C000A642F4DBB5FBF4F080B2BDE8F08100BFCE
:1010D000FEE770B505460C4645F2555000F02CF879
:1010E000284600F01DF8204600F020F800F010F827
:1010F00000F002F870BD00004CF6CC4001490860D9
:10110000704700000030004010B500F001F810BD3D
:101110004AF6AA20014908607047000000300040EC
:101120000149486070470000003000400149886074
:10113000704700000030004001490860704700001F
:101140000030004008B50121082000F09DF8012082
:10115000ADF8000004208DF8030069460148FFF750
:10116000EEFE08BD000C014070B504460D46294650
:101170002046FFF76FFF58B906A000F04FFB00BFF5
:1011800029462046FFF766FF0028F9D0002070BDF1
:101190000120FCE7657373200000000008B5012101
:1011A000102000F071F84FF40050ADF8000010204E
:1011B0008DF8030003208DF8020069460448FFF70C
:1011C000BEFE4FF400510248FFF74DFF08BD00007E
:1011D0000010014000BFFEE77047000070B500211D
:1011E00000230F22C47804B3154C246804F4E0648F
:1011F000C4F5E064210AC1F10403CA40447804FA4A
:1012000003F184781440214309010E4C0678A1555E
:10121000047804F01F050124AC4005786D11AD0081
:1012200005F1E025C5F8004109E0047804F01F0548
:101230000124AC40044D0678761145F8264070BD77
:101240000CED00E000E400E080E100E07047000009
:1012500001460020034A506820F440400843506093
:10126000704700000010024029B1064AD2690243CB
:10127000044BDA6104E0034AD2698243014BDA612C
:10128000704700000010024029B1064A92690243EB
:10129000044B9A6104E0034A92698243014B9A61CC
:1012A000704700000010024029B1064AD26802438C
:1012B000044BDA6004E0034AD2688243014BDA60EF
:1012C000704700000010024030B5002100220024C9
:1012D00000232D4D6D6805F00C0121B1042905D0C6
:1012E000082923D105E0294D056022E0274D05603E
:1012F0001FE0254D6D6805F47012234D6D6805F4EF
:101300008034022505EB92421CB9214D55430560FE
:101310000BE01D4D6D6805F400351DB11C4D5543A6
:10132000056002E0194D5543056002E0174D056068
:1013300000BF00BF144D6D6805F0F0010909154D9F
:101340006B5C0568DD4045600F4D6D6805F4E0613C
:10135000090A104D6B5C4568DD4085600A4D6D687B
:1013600005F46051C90A0B4D6B5C4568DD40C560F2
:10137000054D6D6805F44041890B074D6B5CC568F0
:10138000B5FBF3F5056130BD0010024000127A0094
:1013900000093D001400002024000020704710B513
:1013A00000F002F810BD00000CB500200190009084
:1013B0003348006840F480303149086000BF30484D
:1013C000006800F4003000900198401C01900098E3
:1013D00018B90198B0F5A06FF1D12948006800F460
:1013E000003010B10120009001E000200090009832
:1013F000012843D12348006840F0100021490860CB
:101400000846006820F0030008600846006840F0C5
:10141000020008601A484068194948600846406858
:1014200048600846406840F480604860084640686C
:1014300020F47C1048600846406840F4E81048609A
:101440000846006840F08070086000BF0C480068E3
:1014500000F000700028F9D00948406820F003002F
:10146000074948600846406840F00200486000BFF5
:101470000348406800F00C000828F9D10CBD0000BA
:101480000010024000200240042808D14FF0E02163
:10149000096941F004014FF0E022116107E04FF0CB
:1014A000E021096921F004014FF0E0221161704749
:1014B0007047000010B51348006840F00100114962
:1014C000086008464068104908400E4948600846D0
:1014D00000680E4908400B4908600846006820F47F
:1014E000802008600846406820F4FE0048604FF401
:1014F0001F008860FFF753FF4FF000600449086049
:1015000010BD0000001002400000FFF8FFFFF6FED3
:1015100008ED00E010B540F225511D4800F0BAF882
:1015200010B31B4800F072F9C4B21A48008800F4E6
:101530000040C8B91748008800F4804060B10A2C08
:1015400003D000201349088020E01248008840F4AE
:1015500000401049088019E00D2C06D10D48008884
:1015600040F480400B49088010E00A480088C0F32E
:101570000D0009490C5407480088401C05490880A3
:1015800008460088C72801DD0020088010BD000043
:1015900000380140440000205600002010B540F201
:1015A00025511D4800F076F810B31B4800F02EF9C5
:1015B000C4B21A48008800F40040C8B9174800882F
:1015C00000F4804060B10A2C03D000201349088049
:1015D00020E01248008840F400401049088019E0DB
:1015E0000D2C06D10D48008840F480400B4908803E
:1015F00010E00A480088C0F30D0009490C54074860
:101600000088401C0549088008460088C72801DD7D
:101610000020088010BD0000004800404600002067
:101620001E0100200FB410B5B4B0002437A80090FC
:10163000C92101A8009B369A00F000F90EE000BF16
:101640000D48008800F040000028F9D02046611CB9
:10165000CCB201A9085C0849091D0880C82C04DA2D
:1016600001A8FEF781FDA042E9D80020009034B027
:1016700010BC5DF814FB00000048004021B18289D5
:1016800042F40052828104E082894DF6FF731A40D1
:101690008281704770B50246002400230025002097
:1016A00040F66A16B14200D100BFC1F3421501F005
:1016B0001F03012606FA03F3012D02D19689334058
:1016C00006E0022D02D1168A334001E0968A3340AB
:1016D0000C12012606FA04F41688344013B10CB13A
:1016E000012000E0002070BDF0B503460024002674
:1016F0000025002040F66A17B94200D100BF184605
:10170000C1F3421401F01F06012707FA06F5012C68
:1017100001D10C3004E0022C01D1103000E0143073
:101720001AB107682F43076002E00768AF430760FC
:10173000F0BD00002DE9F04786B005460E460024B6
:10174000A24600BFA1460027B08900B100BF2F46C6
:101750002C8A4CF6FF700440F08804432C82AC893C
:101760004EF6F3100440B08831890843718908436C
:101770000443AC81AC8A4FF6FF400440B089044377
:10178000AC8201A8FFF7A0FD1F48874202D1DDF817
:1017900010A001E0DDF80CA0A88900F4004040B1E1
:1017A0000AEBCA0000EB0A1031684900B0FBF1F8FF
:1017B00007E00AEBCA0000EB0A1031688900B0FBB1
:1017C000F1F86420B8FBF0F004012009642101FB6A
:1017D0001089A88900F4004040B1322000EBC90014
:1017E000B0FBF1F000F00700044308E0322000EB0A
:1017F00009106421B0FBF1F000F00F0004432C81CC
:1018000006B0BDE8F0870000003801400146888836
:10181000C0F30800704700BFFEE700000FB4054B9F
:1018200010B503A9044A029800F0DCF810BC5DF87A
:1018300014FB0000FD240008400000207CB5491E78
:101840001C461546CDE90001044B6A462146284650
:1018500000F040FA009A002111707CBD5524000868
:1018600002E008C8121F08C1002AFAD17047704769
:10187000002001E001C1121F002AFBD170470000C7
:101880002DE9FF5FDDE90220010DDDF838B00243EC
:1018900018D044F61050A1F2FF3141430D140F98B7
:1018A000012820D0A5EB0B00401C5FEA000A4FF096
:1018B0000004474EDFF81C91A046504616D5CAF1E9
:1018C000000728E00F98012443A2012808D0002136
:1018D00000980F9BC0E90021C0E90243BDE8FF9FCB
:1018E0006FEA0B01F4E7CBF10000DEE7074612E0F8
:1018F000F80707D02246334640464946FEF74FFEDA
:10190000804689462246334610461946FEF747FE72
:1019100004460E467F10002FEAD1DDE90201BAF13C
:10192000000F42464B4602DAFEF739FE01E0FEF7B1
:10193000A8FE04460E460022284BFEF729FF03D8D6
:101940004FF0FF30014607E00022254B204631468C
:10195000FEF77EFDFEF704FF102409E0002C0ADBF1
:101960000A220023FEF70CFD019B30321A55641E3B
:1019700050EA0102F2D1641C019AC4F1110314442B
:101980000F9A012A03D0012208430DD10AE008432F
:1019900004D000204FF0110B0F9080E7A3EB0B0554
:1019A0006D1E0DE05B4504DD4FF0000205F1010501
:1019B00004E003DA4FF00002A5F10105002AECD0A3
:1019C00000980F99C0E90231C0E9004586E70000A0
:1019D000000024400000F03F300000000000F04311
:1019E0000000E03F2DE9FF4F8BB0884605460026FA
:1019F00006E025280BD0DDE90D1290476D1C761C02
:101A000028780028F5D10FB03046BDE8F08F0024CB
:101A1000A146A2460122AE4900E0044315F8013F69
:101A2000203B02FA03F00842F7D128782A2810D088
:101A30006FF02F022878A0F13001092915D809EBA1
:101A4000890102EB410144F0020400EB01096D1C25
:101A5000F0E758F8041B5FEA010903D544F4005489
:101A6000C9F1000944F002046D1C28782E2817D112
:101A700015F8010F44F004042A280ED06FF02F024D
:101A80002878A0F1300109290AD80AEB8A0102EB73
:101A9000410100EB010A6D1CF2E758F804AB6D1C24
:101AA00028786C280FD006DC4C2817D068280DD079
:101AB0006A2814D104E0742810D07A280FD10DE0E0
:101AC00044F400140AE044F4801401E044F44014A7
:101AD0006978814202D104F580146D1C6D1C287850
:101AE000692865D006DC00288DD0632827D06428BB
:101AF00006D15DE06E2808D073282AD0752877D0EB
:101B0000DDE90D129047761CE0E0C4F30250022894
:101B100009D003280DD0D8F8001004280DD00E608D
:101B200008F10408D2E0D8F80010F217C1E9006209
:101B3000F6E7D8F800100E80F2E70E70F0E718F81C
:101B4000041B8DF8001000208DF80100EB460120E9
:101B500003E058F804BB4FF0FF3061074FF0000777
:101B600001D40AE07F1C57450DDA8742FADB1BF8E7
:101B700007100029F6D106E07F1C8742FCDB1BF82A
:101B800007100029F8D1DDE90D23A9EB07008146F4
:101B9000214600F031FC3044C61904E0DDE90D12A5
:101BA0001BF8010B90477F1EF8D22146484688E07B
:101BB00058F8040BC4F302514FF00A0B032900D16B
:101BC00000B2042900D140B2002802DA40422D219F
:101BD00002E0210505D52B218DF82410012104E018
:101BE00006E0E10710D02021F6E708AF089113E0E6
:101BF00058F8040BC4F302514FF00A0B032900D12B
:101C000080B2042900D1C0B20021EEE75946FEF7A8
:101C1000A1FB303107F8011D0028F7D1ADEB07001B
:101C200000F1200B600702D524F4803401E04FF06E
:101C3000010ADA4502DDAAEB0B0000E00020824633
:101C400000EB0B0108980144A9EB01000A90E003A6
:101C500006D4DDE90D2321460A9800F0CDFB0644A9
:101C60004FF0000908E009A911F80900DDE90D129B
:101C7000904709F10109761C08998945F3DBE003D7
:101C80000CD5DDE90D2321460A9800F0B5FB06448A
:101C900004E0DDE90D1230209047761CBAF1000116
:101CA000AAF1010AF5DC05E0DDE90D1217F8010BD8
:101CB0009047761CBBF10001ABF1010BF4DC0A98F4
:101CC0002146DDE90D2300F073FB06446D1C97E609
:101CD000092801002DE9FF4F95B09B46894606462D
:101CE00000250FE2252877D100242746F84A012154
:101CF000059400E0044316F8013F203B01FA03F08D
:101D00001042F7D130782A2811D06FF02F033078A5
:101D1000A0F13002092A16D8059A44F0020402EB19
:101D2000820203EB42021044761C0590EFE759F85B
:101D3000042B0592002A03DA504244F40054059023
:101D400044F00204761C30782E2816D116F8010FC4
:101D500044F004042A280DD06FF02F023078A0F14F
:101D60003003092B09D807EB870302EB4303C7189D
:101D7000761CF3E759F8047B761C30786C280FD07A
:101D800006DC4C2817D068280DD06A2814D104E04E
:101D9000742810D07A280FD10DE044F400140AE022
:101DA00044F4801401E044F440147278824202D179
:101DB00004F58014761C761C307866280BD013DC72
:101DC000582877D009DC002875D04528F6D0462859
:101DD000F4D047281AD19DE118E0632835D0642853
:101DE00079D0652812D195E1702873D008DC672876
:101DF000F1D069286FD06E280DD06F2806D1B5E0DC
:101E000073282CD0752875D0782874D05A46179925
:101E100090476D1C75E1C4F30250022809D00328D5
:101E20000DD0D9F8001004280DD00D6009F1040977
:101E300067E1D9F80010EA17C1E90052F6E7D9F8CE
:101E400000100D80F2E70D70F0E719F8041B8DF813
:101E5000001000208DF80100EA46012003E059F847
:101E600004AB4FF0FF3061074FF0000102D40DE0EA
:101E700008F101018846B9420FDA8045F8DB1AF80B
:101E800008100029F4D108E008F1010188468142D8
:101E9000FADB1AF808100029F6D105985B46A0EB8A
:101EA000080721463846179A00F0BDFA284400EB8F
:101EB000080507E04DE029E10DE01AF8010B5A464C
:101EC00017999047B8F10108F7D25B46214638468A
:101ED000179A13E142E00A220092C4F302524FF033
:101EE000000A022A08D059F804CB032A4FEAEC7101
:101EF0000AD00DE029E02AE009F1070121F00702EC
:101F0000F2E802C1914609E00FFA8CFC4FEAEC714D
:101F1000042A03D14FFA8CFC4FEAEC71002907DA4E
:101F20000A460021DCF1000C61EB02012D2202E0E7
:101F3000220504D52B228DF80420012203E0E207BC
:101F400001D02022F7E7904659E00A2102E0102252
:101F50000DE010214FF0000A00910BE010224FF02D
:101F6000000A44F004040827009203E008224FF01E
:101F7000000A0092C4F30252022A05D059F804CB99
:101F80000021032A08D009E009F1070121F0070226
:101F9000F2E802C1914605E01FFA8CFC042A01D147
:101FA0000CF0FF0C4FF00008220728D5702806D04F
:101FB000009B83F0100353EA0A0305D00EE0402291
:101FC0008DF80420012208E05CEA010206D03022EC
:101FD0008DF804208DF8050002229046009B83F0C6
:101FE000080353EA0A030AD15CEA010201D162073D
:101FF00005D530228DF804204FF001087F1E5828A7
:1020000004D034A003900EA802900DE036A0F9E7AA
:1020100053466046009AFEF7B3F984460398825C03
:102020000298401E029002705CEA0100F0D1029812
:1020300006A9081A00F1200A600702D524F48034AA
:1020400000E00127574502DDA7EB0A0000E0002071
:1020500000EB0A01009005984144401A0590E00306
:1020600006D45B462146179A059800F0DCF9054432
:10207000002706E001A85A46C05D179990476D1CDD
:102080007F1C4745F6DBE0030CD55B462146179ADB
:10209000059800F0C8F9054404E030205A46179925
:1020A00090476D1C0099481E00900029F5DC08E05F
:1020B000029802995A460078491C02911799904754
:1020C0006D1CBAF10001AAF1010AF1DC65E1000022
:1020D00009280100303132333435363738396162FE
:1020E00063646566000000003031323334353637C2
:1020F00038394142434445460000000000F06AF987
:102100000544761C307800287FF4ECAD19B02846E1
:10211000BDE8F08F620700D4062709F1070222F01C
:10212000070CFCE80223E14603F000485FEA080CD4
:1021300002D00FF2702C0DE05FEA045C02D50FF2C2
:10214000682C07E05FEAC47C02D00FF2602C01E04B
:10215000AFF2700C4FF0FF3823F00043CDF850C0C1
:1021600065280CD006DC452809D046281DD0472814
:102170003DD13DE0662818D067287ED138E00021A7
:10218000112F01DB112000E0781CCDE9000106A928
:102190000EA8FFF775FBDDE90F010E9A03910021F0
:1021A000009207F1010A04914DE04FF000400097C2
:1021B000CDE9011006A90EA8FFF762FBDDE90F02C9
:1021C00003920E9B11990022DDF80CA0009304925B
:1021D00011B9791C00EB010AB7EB0A0004D4C0F175
:1021E000FF3007F1010A0490AAEB0700019044E0D8
:1021F000012F00DA01270021112F01DD112000E05D
:102200003846CDE9000106A90EA8FFF739FBDDE944
:102210000F010E9A0391002104910092BA46210702
:102220000CD40399514500DA8A46BAF1010F05DD55
:10223000009AAAF10101515C302908D0B84202DAB3
:1022400010F1040F06DA0121CDE9011015E0AAF121
:102250000101E9E7002805DC049901440491AAEB97
:10226000000102E0411C514500DD8A460499401AF4
:10227000401C01904FF000400290200704D40198C8
:10228000504501DBCDF8048000208DF84F00029806
:102290000DF14F07B0F1004F25D02B200E90029882
:1022A0004FF0020800280CDA404202902D200E90D8
:1022B00007E00A210298FEF74DF83031029007F846
:1022C000011DB8F10001A8F10108F2DC0298002814
:1022D000EFD1791E0E980870307800F0200040F0A1
:1022E000450007F8020D12A8C01B00F1070814985A
:1022F000007800B1012000EB0A01019801EBE071C8
:1023000005984144401A401E0590E00306D45B4600
:102310002146179A059800F086F80544149800782D
:1023200018B15A46179990476D1CE00324D55B46B7
:102330002146179A059800F076F805441CE00498A9
:10234000002807DBDDE90301884203DD0098405CDB
:10235000179901E0179930205A469047049805F1E3
:102360000105401C04900198401E019004D12E20CC
:102370005A46179990476D1CBAF10001AAF1010A5B
:10238000DDDC05E017F8010B5A46179990476D1CE4
:10239000B8F10001A8F10108F4DC5B462146179A68
:1023A0000598ABE62D0000002B0000002000000087
:1023B0002DE9F041044600251E461746880404D442
:1023C00005E039462020B0476D1C641EF9D528462B
:1023D000BDE8F0812DE9F041044600251E46174670
:1023E000880404D405E039462020B0476D1C641EE3
:1023F000F9D52846BDE8F0812DE9F04104460025D5
:102400001E469046C80301D5302700E020278804E7
:1024100004D505E041463846B0476D1C641EF9D529
:102420002846BDE8F0812DE9F041044600251E460E
:102430009046C80301D5302700E02027880404D542
:1024400005E041463846B0476D1C641EF9D5284664
:10245000BDE8F0814A68002A06D00A68531C0B6068
:1024600010704868401E48607047000010B56FF05B
:102470000400FFF709F80A4800680A49B0FBF1F0C8
:10248000094908700846007800EB4001C1EBC01014
:102490004FF6FF7101EAC0000449088010BD00003A
:1024A0000000002000127A00480000204A000020AE
:1024B0000146114A12884A434FF0E0235A61002234
:1024C0009A611A46126942F001021A6100BF4FF088
:1024D000E022106900F001021AB100F48032002AF3
:1024E000F5D04FF0E022126922F001024FF0E02314
:1024F0001A6100229A6170474A00002000BF054A15
:10250000128802F04002002AF9D0C2B2014B1B1D12
:102510001A80704700380140FEF740FEFFF7A6FF23
:10252000FEF710FE4FF4E13000F0AEF84FF4E1306A
:1025300000F0FAF837A0FFF771F93BA0FFF772F847
:10254000FEF7D4FA40F635410420FEF7C2FD3B48C1
:10255000006808B9012000E000203849086003E065
:10256000FEF7D2FDFEF70AFB01213548FEF7FCFD20
:102570000028F5D13148006808B9012000E00020AA
:102580002E4908602F48008932302F4908802D4895
:10259000C0882E4908802B4880882D49088029480A
:1025A00040882C490880274800882B4908802BA0A8
:1025B000FFF738F803E0FEF7A7FDFEF7DFFA012189
:1025C0001F48FEF7D1FD0028F5D11E480089264995
:1025D00008801C48C088254908801A4880882449FA
:1025E00008801848408823490880164800882249F6
:1025F000088022A0FFF716F80BE0FEF785FDFEF736
:1026000021FB0E48006808B9012000E000200B49BA
:102610000860F2E7B4AEBFDA31B4F2D3A1B3F6C0CA
:10262000B4B5C40D0A000000B4AEBFDA33B4F2D3BF
:10263000A1B3F6C0B4B5C40D0A000000B401224233
:10264000000C01404C0000202C0000203000002035
:1026500034000020380000203C0000204D41585F2D
:1026600066696E69736800002E0000203200002049
:10267000360000203A0000203E0000204D494E5F09
:1026800066696E697368000010B586B00446012162
:1026900044F20400FEF7F8FD4FF40070ADF81400AA
:1026A00003208DF8160018208DF8170005A91C4886
:1026B000FEF745FC4FF48060ADF8140004208DF85F
:1026C000170005A91648FEF73AFC25208DF80000F2
:1026D00003208DF801008DF8020001208DF8030021
:1026E0006846FEF77BFD01940020ADF80800ADF8C8
:1026F0000A00ADF80C00ADF810000C20ADF80E008B
:1027000001A90848FFF716F8012240F225510548B3
:10271000FEF7EAFF01210348FEF7B0FF06B010BD47
:10272000000801400038014010B586B00446012180
:102730000820FEF7A9FD01218804FEF795FD4FF45E
:102740008060ADF8140003208DF8160018208DF875
:10275000170005A91C48FEF7F2FB4FF40060ADF826
:10276000140004208DF8170005A91748FEF7E7FBB1
:1027700027208DF8000003208DF801008DF802005D
:1027800001208DF803006846FEF728FD0194002023
:10279000ADF80800ADF80A00ADF80C00ADF8100077
:1027A0000C20ADF80E0001A90848FEF7C3FF012276
:1027B00040F225510548FEF797FF01210348FEF737
:1027C0005DFF06B010BD0000000C01400048004055
:1027D000F0270008000000204C00000060180008EE
:1027E0003C2800084C0000209C05000070180008E0
:1027F00000A24A04000000000000000001020304DF
:102800000607080900000000010203040102030496
:102810000607080902040608000000000000000086
:1028200000000000000000000000000000000000A8
:0C2830000000000000000000000000009C
:0400000508000131BD
:00000001FF
